{
  "contractName": "TheProduct",
  "abi": [
    {
      "constant": true,
      "inputs": [
        {
          "internalType": "uint256",
          "name": "",
          "type": "uint256"
        }
      ],
      "name": "storageProduceArray",
      "outputs": [
        {
          "internalType": "uint256",
          "name": "ID",
          "type": "uint256"
        },
        {
          "internalType": "string",
          "name": "marketID",
          "type": "string"
        },
        {
          "internalType": "address payable",
          "name": "marketAddress",
          "type": "address"
        },
        {
          "internalType": "uint256",
          "name": "quantity",
          "type": "uint256"
        },
        {
          "internalType": "string",
          "name": "unitOfMeasure",
          "type": "string"
        },
        {
          "internalType": "string",
          "name": "storageTimeStamp",
          "type": "string"
        },
        {
          "internalType": "string",
          "name": "storageCaptureTime",
          "type": "string"
        },
        {
          "internalType": "string",
          "name": "URL",
          "type": "string"
        },
        {
          "internalType": "string",
          "name": "hashID",
          "type": "string"
        }
      ],
      "payable": false,
      "stateMutability": "view",
      "type": "function"
    },
    {
      "constant": true,
      "inputs": [
        {
          "internalType": "uint256",
          "name": "",
          "type": "uint256"
        }
      ],
      "name": "harvestProduceArray",
      "outputs": [
        {
          "internalType": "uint256",
          "name": "ID",
          "type": "uint256"
        },
        {
          "internalType": "string",
          "name": "supplierID",
          "type": "string"
        },
        {
          "internalType": "address payable",
          "name": "supplierAddress",
          "type": "address"
        },
        {
          "internalType": "string",
          "name": "productID",
          "type": "string"
        },
        {
          "internalType": "string",
          "name": "photoHash",
          "type": "string"
        },
        {
          "internalType": "string",
          "name": "harvestTimeStamp",
          "type": "string"
        },
        {
          "internalType": "string",
          "name": "harvestCaptureTime",
          "type": "string"
        }
      ],
      "payable": false,
      "stateMutability": "view",
      "type": "function"
    },
    {
      "anonymous": false,
      "inputs": [
        {
          "indexed": true,
          "internalType": "uint256",
          "name": "_harvestID",
          "type": "uint256"
        }
      ],
      "name": "registeredHarvestEvent",
      "type": "event"
    },
    {
      "anonymous": false,
      "inputs": [
        {
          "indexed": true,
          "internalType": "uint256",
          "name": "_storageID",
          "type": "uint256"
        }
      ],
      "name": "registeredStorageEvent",
      "type": "event"
    },
    {
      "constant": false,
      "inputs": [
        {
          "internalType": "uint256",
          "name": "_ID",
          "type": "uint256"
        },
        {
          "internalType": "string",
          "name": "_supplierID",
          "type": "string"
        },
        {
          "internalType": "address payable",
          "name": "_supplierAddress",
          "type": "address"
        },
        {
          "internalType": "string",
          "name": "_productID",
          "type": "string"
        },
        {
          "internalType": "string",
          "name": "_photoHash",
          "type": "string"
        },
        {
          "internalType": "string",
          "name": "_harvestTimeStamp",
          "type": "string"
        },
        {
          "internalType": "string",
          "name": "_harvestCaptureTime",
          "type": "string"
        }
      ],
      "name": "registerHarvest",
      "outputs": [],
      "payable": false,
      "stateMutability": "nonpayable",
      "type": "function"
    },
    {
      "constant": false,
      "inputs": [
        {
          "internalType": "uint256",
          "name": "_ID",
          "type": "uint256"
        },
        {
          "internalType": "string",
          "name": "_marketID",
          "type": "string"
        },
        {
          "internalType": "address payable",
          "name": "_marketAddress",
          "type": "address"
        },
        {
          "internalType": "uint256",
          "name": "_quantity",
          "type": "uint256"
        },
        {
          "internalType": "string",
          "name": "_unitOfMeasure",
          "type": "string"
        },
        {
          "internalType": "string",
          "name": "_storageTimeStamp",
          "type": "string"
        },
        {
          "internalType": "string",
          "name": "_storageCaptureTime",
          "type": "string"
        },
        {
          "internalType": "string",
          "name": "_URL",
          "type": "string"
        },
        {
          "internalType": "string",
          "name": "_hashID",
          "type": "string"
        }
      ],
      "name": "registerStorage",
      "outputs": [],
      "payable": false,
      "stateMutability": "nonpayable",
      "type": "function"
    },
    {
      "constant": true,
      "inputs": [],
      "name": "noHarvests",
      "outputs": [
        {
          "internalType": "uint256",
          "name": "",
          "type": "uint256"
        }
      ],
      "payable": false,
      "stateMutability": "view",
      "type": "function"
    },
    {
      "constant": true,
      "inputs": [],
      "name": "noStorage",
      "outputs": [
        {
          "internalType": "uint256",
          "name": "",
          "type": "uint256"
        }
      ],
      "payable": false,
      "stateMutability": "view",
      "type": "function"
    }
  ],
  "bytecode": "0x608060405234801561001057600080fd5b5061193e806100206000396000f3fe608060405234801561001057600080fd5b506004361061007f576000357c010000000000000000000000000000000000000000000000000000000090048063368073ea1461008457806359e99057146103c55780635d1d7199146107a8578063a9d0980a14610aac578063c5710cca14610aca578063ed65b3eb14610d5b575b600080fd5b6103c3600480360360e081101561009a57600080fd5b8101908080359060200190929190803590602001906401000000008111156100c157600080fd5b8201836020820111156100d357600080fd5b803590602001918460018302840111640100000000831117156100f557600080fd5b91908080601f016020809104026020016040519081016040528093929190818152602001838380828437600081840152601f19601f820116905080830192505050505050509192919290803573ffffffffffffffffffffffffffffffffffffffff1690602001909291908035906020019064010000000081111561017857600080fd5b82018360208201111561018a57600080fd5b803590602001918460018302840111640100000000831117156101ac57600080fd5b91908080601f016020809104026020016040519081016040528093929190818152602001838380828437600081840152601f19601f8201169050808301925050505050505091929192908035906020019064010000000081111561020f57600080fd5b82018360208201111561022157600080fd5b8035906020019184600183028401116401000000008311171561024357600080fd5b91908080601f016020809104026020016040519081016040528093929190818152602001838380828437600081840152601f19601f820116905080830192505050505050509192919290803590602001906401000000008111156102a657600080fd5b8201836020820111156102b857600080fd5b803590602001918460018302840111640100000000831117156102da57600080fd5b91908080601f016020809104026020016040519081016040528093929190818152602001838380828437600081840152601f19601f8201169050808301925050505050505091929192908035906020019064010000000081111561033d57600080fd5b82018360208201111561034f57600080fd5b8035906020019184600183028401116401000000008311171561037157600080fd5b91908080601f016020809104026020016040519081016040528093929190818152602001838380828437600081840152601f19601f820116905080830192505050505050509192919290505050610d79565b005b6107a660048036036101208110156103dc57600080fd5b81019080803590602001909291908035906020019064010000000081111561040357600080fd5b82018360208201111561041557600080fd5b8035906020019184600183028401116401000000008311171561043757600080fd5b91908080601f016020809104026020016040519081016040528093929190818152602001838380828437600081840152601f19601f820116905080830192505050505050509192919290803573ffffffffffffffffffffffffffffffffffffffff16906020019092919080359060200190929190803590602001906401000000008111156104c457600080fd5b8201836020820111156104d657600080fd5b803590602001918460018302840111640100000000831117156104f857600080fd5b91908080601f016020809104026020016040519081016040528093929190818152602001838380828437600081840152601f19601f8201169050808301925050505050505091929192908035906020019064010000000081111561055b57600080fd5b82018360208201111561056d57600080fd5b8035906020019184600183028401116401000000008311171561058f57600080fd5b91908080601f016020809104026020016040519081016040528093929190818152602001838380828437600081840152601f19601f820116905080830192505050505050509192919290803590602001906401000000008111156105f257600080fd5b82018360208201111561060457600080fd5b8035906020019184600183028401116401000000008311171561062657600080fd5b91908080601f016020809104026020016040519081016040528093929190818152602001838380828437600081840152601f19601f8201169050808301925050505050505091929192908035906020019064010000000081111561068957600080fd5b82018360208201111561069b57600080fd5b803590602001918460018302840111640100000000831117156106bd57600080fd5b91908080601f016020809104026020016040519081016040528093929190818152602001838380828437600081840152601f19601f8201169050808301925050505050505091929192908035906020019064010000000081111561072057600080fd5b82018360208201111561073257600080fd5b8035906020019184600183028401116401000000008311171561075457600080fd5b91908080601f016020809104026020016040519081016040528093929190818152602001838380828437600081840152601f19601f820116905080830192505050505050509192919290505050610f0d565b005b6107d4600480360360208110156107be57600080fd5b81019080803590602001909291905050506110d9565b604051808a8152602001806020018973ffffffffffffffffffffffffffffffffffffffff1673ffffffffffffffffffffffffffffffffffffffff168152602001888152602001806020018060200180602001806020018060200187810387528f818151815260200191508051906020019080838360005b8381101561086657808201518184015260208101905061084b565b50505050905090810190601f1680156108935780820380516001836020036101000a031916815260200191505b5087810386528c818151815260200191508051906020019080838360005b838110156108cc5780820151818401526020810190506108b1565b50505050905090810190601f1680156108f95780820380516001836020036101000a031916815260200191505b5087810385528b818151815260200191508051906020019080838360005b83811015610932578082015181840152602081019050610917565b50505050905090810190601f16801561095f5780820380516001836020036101000a031916815260200191505b5087810384528a818151815260200191508051906020019080838360005b8381101561099857808201518184015260208101905061097d565b50505050905090810190601f1680156109c55780820380516001836020036101000a031916815260200191505b50878103835289818151815260200191508051906020019080838360005b838110156109fe5780820151818401526020810190506109e3565b50505050905090810190601f168015610a2b5780820380516001836020036101000a031916815260200191505b50878103825288818151815260200191508051906020019080838360005b83811015610a64578082015181840152602081019050610a49565b50505050905090810190601f168015610a915780820380516001836020036101000a031916815260200191505b509f5050505050505050505050505050505060405180910390f35b610ab46114e4565b6040518082815260200191505060405180910390f35b610af660048036036020811015610ae057600080fd5b81019080803590602001909291905050506114f1565b60405180888152602001806020018773ffffffffffffffffffffffffffffffffffffffff1673ffffffffffffffffffffffffffffffffffffffff1681526020018060200180602001806020018060200186810386528c818151815260200191508051906020019080838360005b83811015610b7e578082015181840152602081019050610b63565b50505050905090810190601f168015610bab5780820380516001836020036101000a031916815260200191505b5086810385528a818151815260200191508051906020019080838360005b83811015610be4578082015181840152602081019050610bc9565b50505050905090810190601f168015610c115780820380516001836020036101000a031916815260200191505b50868103845289818151815260200191508051906020019080838360005b83811015610c4a578082015181840152602081019050610c2f565b50505050905090810190601f168015610c775780820380516001836020036101000a031916815260200191505b50868103835288818151815260200191508051906020019080838360005b83811015610cb0578082015181840152602081019050610c95565b50505050905090810190601f168015610cdd5780820380516001836020036101000a031916815260200191505b50868103825287818151815260200191508051906020019080838360005b83811015610d16578082015181840152602081019050610cfb565b50505050905090810190601f168015610d435780820380516001836020036101000a031916815260200191505b509c5050505050505050505050505060405180910390f35b610d63611858565b6040518082815260200191505060405180910390f35b6000806040518060e001604052808a81526020018981526020018873ffffffffffffffffffffffffffffffffffffffff1681526020018781526020018681526020018581526020018481525090806001815401808255809150509060018203906000526020600020906007020160009091929091909150600082015181600001556020820151816001019080519060200190610e16929190611864565b5060408201518160020160006101000a81548173ffffffffffffffffffffffffffffffffffffffff021916908373ffffffffffffffffffffffffffffffffffffffff1602179055506060820151816003019080519060200190610e7a929190611864565b506080820151816004019080519060200190610e97929190611864565b5060a0820151816005019080519060200190610eb4929190611864565b5060c0820151816006019080519060200190610ed1929190611864565b5050509050807f448b883c57f00c96b9043903a94730121a2b3a27b573df54ca5d940ed829bb3c60405160405180910390a25050505050505050565b600060016040518061012001604052808c81526020018b81526020018a73ffffffffffffffffffffffffffffffffffffffff1681526020018981526020018881526020018781526020018681526020018581526020018481525090806001815401808255809150509060018203906000526020600020906009020160009091929091909150600082015181600001556020820151816001019080519060200190610fb8929190611864565b5060408201518160020160006101000a81548173ffffffffffffffffffffffffffffffffffffffff021916908373ffffffffffffffffffffffffffffffffffffffff160217905550606082015181600301556080820151816004019080519060200190611026929190611864565b5060a0820151816005019080519060200190611043929190611864565b5060c0820151816006019080519060200190611060929190611864565b5060e082015181600701908051906020019061107d929190611864565b5061010082015181600801908051906020019061109b929190611864565b5050509050807f49c8df757c5abba4386b3a9456d4e6d05af341cc29caf06939a2771da919f0b960405160405180910390a250505050505050505050565b600181815481106110e657fe5b9060005260206000209060090201600091509050806000015490806001018054600181600116156101000203166002900480601f0160208091040260200160405190810160405280929190818152602001828054600181600116156101000203166002900480156111985780601f1061116d57610100808354040283529160200191611198565b820191906000526020600020905b81548152906001019060200180831161117b57829003601f168201915b5050505050908060020160009054906101000a900473ffffffffffffffffffffffffffffffffffffffff1690806003015490806004018054600181600116156101000203166002900480601f0160208091040260200160405190810160405280929190818152602001828054600181600116156101000203166002900480156112625780601f1061123757610100808354040283529160200191611262565b820191906000526020600020905b81548152906001019060200180831161124557829003601f168201915b505050505090806005018054600181600116156101000203166002900480601f0160208091040260200160405190810160405280929190818152602001828054600181600116156101000203166002900480156113005780601f106112d557610100808354040283529160200191611300565b820191906000526020600020905b8154815290600101906020018083116112e357829003601f168201915b505050505090806006018054600181600116156101000203166002900480601f01602080910402602001604051908101604052809291908181526020018280546001816001161561010002031660029004801561139e5780601f106113735761010080835404028352916020019161139e565b820191906000526020600020905b81548152906001019060200180831161138157829003601f168201915b505050505090806007018054600181600116156101000203166002900480601f01602080910402602001604051908101604052809291908181526020018280546001816001161561010002031660029004801561143c5780601f106114115761010080835404028352916020019161143c565b820191906000526020600020905b81548152906001019060200180831161141f57829003601f168201915b505050505090806008018054600181600116156101000203166002900480601f0160208091040260200160405190810160405280929190818152602001828054600181600116156101000203166002900480156114da5780601f106114af576101008083540402835291602001916114da565b820191906000526020600020905b8154815290600101906020018083116114bd57829003601f168201915b5050505050905089565b6000600180549050905090565b600081815481106114fe57fe5b9060005260206000209060070201600091509050806000015490806001018054600181600116156101000203166002900480601f0160208091040260200160405190810160405280929190818152602001828054600181600116156101000203166002900480156115b05780601f10611585576101008083540402835291602001916115b0565b820191906000526020600020905b81548152906001019060200180831161159357829003601f168201915b5050505050908060020160009054906101000a900473ffffffffffffffffffffffffffffffffffffffff1690806003018054600181600116156101000203166002900480601f0160208091040260200160405190810160405280929190818152602001828054600181600116156101000203166002900480156116745780601f1061164957610100808354040283529160200191611674565b820191906000526020600020905b81548152906001019060200180831161165757829003601f168201915b505050505090806004018054600181600116156101000203166002900480601f0160208091040260200160405190810160405280929190818152602001828054600181600116156101000203166002900480156117125780601f106116e757610100808354040283529160200191611712565b820191906000526020600020905b8154815290600101906020018083116116f557829003601f168201915b505050505090806005018054600181600116156101000203166002900480601f0160208091040260200160405190810160405280929190818152602001828054600181600116156101000203166002900480156117b05780601f10611785576101008083540402835291602001916117b0565b820191906000526020600020905b81548152906001019060200180831161179357829003601f168201915b505050505090806006018054600181600116156101000203166002900480601f01602080910402602001604051908101604052809291908181526020018280546001816001161561010002031660029004801561184e5780601f106118235761010080835404028352916020019161184e565b820191906000526020600020905b81548152906001019060200180831161183157829003601f168201915b5050505050905087565b60008080549050905090565b828054600181600116156101000203166002900490600052602060002090601f016020900481019282601f106118a557805160ff19168380011785556118d3565b828001600101855582156118d3579182015b828111156118d25782518255916020019190600101906118b7565b5b5090506118e091906118e4565b5090565b61190691905b808211156119025760008160009055506001016118ea565b5090565b9056fea265627a7a7231582026b6acc99423610c429a1a4f0bdcd4d10d3d6b72a40e613d5fa2f5873198134d64736f6c634300050b0032",
  "source": "pragma solidity ^0.5.0;\n\ncontract TheProduct {\n\n    //Creating the reference data for harvest of produce\n    struct harvestProduce {\n        uint ID;\n        string supplierID;\n        address payable supplierAddress;\n        string productID;\n        string photoHash;\n        string harvestTimeStamp;\n        string harvestCaptureTime;\n    }\n\n    //Creating the reference data for storage of produce\n    struct storageProduce {\n        uint ID;  //this should be the same ID as the harvestProduce ID\n        string marketID;\n        address payable marketAddress;\n        uint quantity;\n        string unitOfMeasure;\n        string storageTimeStamp;\n        string storageCaptureTime;\n        string URL;\n        string hashID;\n    }\n\n//    constructor () public {\n//        //registerHarvest(ID, supplierID, supplierAddress, productID, photoHash, harvestTimeStamp, harvestCaptureTime)\n//        registerHarvest(001,'OZF',\"0x4657892df\",'APP','456xf87909', '20190625 14:00', '20190725 15:00');\n//    }\n\n    event registeredHarvestEvent (\n        uint indexed _harvestID\n    );\n\n    event registeredStorageEvent (\n        uint indexed _storageID\n    );\n\n        //Array of all the produce harvested\n    harvestProduce[] public harvestProduceArray;\n\n    //Array of all the produce received at storage\n    storageProduce[] public storageProduceArray;\n\n    //Registering a harvest instance\n    //Not sure if the input parameters should be read from memory...?\n    function registerHarvest(uint _ID, string memory _supplierID, address payable _supplierAddress,  string memory _productID, string memory _photoHash, string memory _harvestTimeStamp, string memory _harvestCaptureTime) public {\n        uint index = harvestProduceArray.push(harvestProduce(_ID, _supplierID, _supplierAddress, _productID, _photoHash, _harvestTimeStamp, _harvestCaptureTime));\n        // trigger registeredHarvest event\n        emit registeredHarvestEvent(index);\n       // buyer[index-1].push(msg.sender); - not applicable\n    }\n\n    //Registering a storage instance\n    //Not sure if the input parameters should be read from memory...?\n    function registerStorage(uint _ID, string memory _marketID, address payable _marketAddress, uint _quantity, string memory _unitOfMeasure, string memory _storageTimeStamp,  string memory _storageCaptureTime, string memory _URL, string memory _hashID) public {\n        uint index = storageProduceArray.push(storageProduce(_ID, _marketID, _marketAddress, _quantity, _unitOfMeasure, _storageTimeStamp, _storageCaptureTime, _URL, _hashID));\n        // trigger registeredStorage event\n        emit registeredStorageEvent(index);\n    }\n\n    //View harvest\n    //This is not working. I think we need to use a loop to return the information per harvest?\n\n    // function viewHarvest() public view returns (harvestProduce[]){\n    //     return harvestProduceArray;\n    // }\n\n    // //View storage\n    // function viewStorage() public view returns (storageProduce[]){\n    //     return storageProduceArray;\n    // }\n\n    //Checks the number of harvests in the harvest array\n    function noHarvests() public view returns (uint){\n        return harvestProduceArray.length;\n    }\n\n    //Checks the number of produce in the storage array\n    function noStorage() public view returns (uint){\n        return storageProduceArray.length;\n    }\n}",
  "sourcePath": "/Users/sudersan/Documents/TraceX/contracts/product.sol",
  "compiler": {
    "name": "solc",
    "version": "0.5.11+commit.c082d0b4.Emscripten.clang"
  },
  "schemaVersion": "3.0.1",
  "updatedAt": "2021-09-22T17:52:12.709Z",
  "devdoc": {
    "methods": {}
  },
  "userdoc": {
    "methods": {}
  }
}